{
  "contractName": "PasswordManager",
  "abi": [
    {
      "inputs": [
        {
          "internalType": "string",
          "name": "_site",
          "type": "string"
        },
        {
          "internalType": "string",
          "name": "_encryptedPassword",
          "type": "string"
        }
      ],
      "name": "addPassword",
      "outputs": [],
      "stateMutability": "nonpayable",
      "type": "function"
    },
    {
      "inputs": [],
      "name": "getPasswords",
      "outputs": [
        {
          "components": [
            {
              "internalType": "string",
              "name": "site",
              "type": "string"
            },
            {
              "internalType": "string",
              "name": "encryptedPassword",
              "type": "string"
            }
          ],
          "internalType": "struct PasswordManager.Password[]",
          "name": "",
          "type": "tuple[]"
        }
      ],
      "stateMutability": "view",
      "type": "function",
      "constant": true
    },
    {
      "inputs": [
        {
          "internalType": "uint256",
          "name": "_index",
          "type": "uint256"
        },
        {
          "internalType": "string",
          "name": "_newEncryptedPassword",
          "type": "string"
        }
      ],
      "name": "updatePassword",
      "outputs": [],
      "stateMutability": "nonpayable",
      "type": "function"
    },
    {
      "inputs": [
        {
          "internalType": "uint256",
          "name": "_index",
          "type": "uint256"
        }
      ],
      "name": "deletePassword",
      "outputs": [],
      "stateMutability": "nonpayable",
      "type": "function"
    }
  ],
  "bytecode": "0x608060405234801561001057600080fd5b5061104e806100206000396000f3fe608060405234801561001057600080fd5b506004361061004c5760003560e01c806349f8880e146100515780634d88747e1461006f578063c3b3863c1461008b578063c419e63b146100a7575b600080fd5b6100596100c3565b604051610066919061085c565b60405180910390f35b610089600480360381019061008491906109fd565b610282565b005b6100a560048036038101906100a09190610a59565b610378565b005b6100c160048036038101906100bc9190610a86565b6105bb565b005b60606000803373ffffffffffffffffffffffffffffffffffffffff1673ffffffffffffffffffffffffffffffffffffffff168152602001908152602001600020805480602002602001604051908101604052809291908181526020016000905b82821015610279578382906000526020600020906002020160405180604001604052908160008201805461015690610b2d565b80601f016020809104026020016040519081016040528092919081815260200182805461018290610b2d565b80156101cf5780601f106101a4576101008083540402835291602001916101cf565b820191906000526020600020905b8154815290600101906020018083116101b257829003601f168201915b505050505081526020016001820180546101e890610b2d565b80601f016020809104026020016040519081016040528092919081815260200182805461021490610b2d565b80156102615780601f1061023657610100808354040283529160200191610261565b820191906000526020600020905b81548152906001019060200180831161024457829003601f168201915b50505050508152505081526020019060010190610123565b50505050905090565b6000803373ffffffffffffffffffffffffffffffffffffffff1673ffffffffffffffffffffffffffffffffffffffff168152602001908152602001600020805490508210610305576040517f08c379a00000000000000000000000000000000000000000000000000000000081526004016102fc90610bbb565b60405180910390fd5b806000803373ffffffffffffffffffffffffffffffffffffffff1673ffffffffffffffffffffffffffffffffffffffff168152602001908152602001600020838154811061035657610355610bdb565b5b906000526020600020906002020160010190816103739190610db6565b505050565b6000803373ffffffffffffffffffffffffffffffffffffffff1673ffffffffffffffffffffffffffffffffffffffff1681526020019081526020016000208054905081106103fb576040517f08c379a00000000000000000000000000000000000000000000000000000000081526004016103f290610bbb565b60405180910390fd5b6000803373ffffffffffffffffffffffffffffffffffffffff1673ffffffffffffffffffffffffffffffffffffffff16815260200190815260200160002060016000803373ffffffffffffffffffffffffffffffffffffffff1673ffffffffffffffffffffffffffffffffffffffff168152602001908152602001600020805490506104879190610eb7565b8154811061049857610497610bdb565b5b90600052602060002090600202016000803373ffffffffffffffffffffffffffffffffffffffff1673ffffffffffffffffffffffffffffffffffffffff16815260200190815260200160002082815481106104f6576104f5610bdb565b5b9060005260206000209060020201600082018160000190816105189190610f01565b506001820181600101908161052d9190610f01565b509050506000803373ffffffffffffffffffffffffffffffffffffffff1673ffffffffffffffffffffffffffffffffffffffff16815260200190815260200160002080548061057f5761057e610fe9565b5b6001900381819060005260206000209060020201600080820160006105a49190610669565b6001820160006105b49190610669565b5050905550565b6000803373ffffffffffffffffffffffffffffffffffffffff1673ffffffffffffffffffffffffffffffffffffffff1681526020019081526020016000206040518060400160405280848152602001838152509080600181540180825580915050600190039060005260206000209060020201600090919091909150600082015181600001908161064c9190610db6565b5060208201518160010190816106629190610db6565b5050505050565b50805461067590610b2d565b6000825580601f1061068757506106a6565b601f0160209004906000526020600020908101906106a591906106a9565b5b50565b5b808211156106c25760008160009055506001016106aa565b5090565b600081519050919050565b600082825260208201905092915050565b6000819050602082019050919050565b600081519050919050565b600082825260208201905092915050565b60005b8381101561072c578082015181840152602081019050610711565b60008484015250505050565b6000601f19601f8301169050919050565b6000610754826106f2565b61075e81856106fd565b935061076e81856020860161070e565b61077781610738565b840191505092915050565b6000604083016000830151848203600086015261079f8282610749565b915050602083015184820360208601526107b98282610749565b9150508091505092915050565b60006107d28383610782565b905092915050565b6000602082019050919050565b60006107f2826106c6565b6107fc81856106d1565b93508360208202850161080e856106e2565b8060005b8581101561084a578484038952815161082b85826107c6565b9450610836836107da565b925060208a01995050600181019050610812565b50829750879550505050505092915050565b6000602082019050818103600083015261087681846107e7565b905092915050565b6000604051905090565b600080fd5b600080fd5b6000819050919050565b6108a581610892565b81146108b057600080fd5b50565b6000813590506108c28161089c565b92915050565b600080fd5b600080fd5b7f4e487b7100000000000000000000000000000000000000000000000000000000600052604160045260246000fd5b61090a82610738565b810181811067ffffffffffffffff82111715610929576109286108d2565b5b80604052505050565b600061093c61087e565b90506109488282610901565b919050565b600067ffffffffffffffff821115610968576109676108d2565b5b61097182610738565b9050602081019050919050565b82818337600083830152505050565b60006109a061099b8461094d565b610932565b9050828152602081018484840111156109bc576109bb6108cd565b5b6109c784828561097e565b509392505050565b600082601f8301126109e4576109e36108c8565b5b81356109f484826020860161098d565b91505092915050565b60008060408385031215610a1457610a13610888565b5b6000610a22858286016108b3565b925050602083013567ffffffffffffffff811115610a4357610a4261088d565b5b610a4f858286016109cf565b9150509250929050565b600060208284031215610a6f57610a6e610888565b5b6000610a7d848285016108b3565b91505092915050565b60008060408385031215610a9d57610a9c610888565b5b600083013567ffffffffffffffff811115610abb57610aba61088d565b5b610ac7858286016109cf565b925050602083013567ffffffffffffffff811115610ae857610ae761088d565b5b610af4858286016109cf565b9150509250929050565b7f4e487b7100000000000000000000000000000000000000000000000000000000600052602260045260246000fd5b60006002820490506001821680610b4557607f821691505b602082108103610b5857610b57610afe565b5b50919050565b600082825260208201905092915050565b7f496e76616c696420696e64657800000000000000000000000000000000000000600082015250565b6000610ba5600d83610b5e565b9150610bb082610b6f565b602082019050919050565b60006020820190508181036000830152610bd481610b98565b9050919050565b7f4e487b7100000000000000000000000000000000000000000000000000000000600052603260045260246000fd5b60008190508160005260206000209050919050565b60006020601f8301049050919050565b600082821b905092915050565b600060088302610c6c7fffffffffffffffffffffffffffffffffffffffffffffffffffffffffffffffff82610c2f565b610c768683610c2f565b95508019841693508086168417925050509392505050565b6000819050919050565b6000610cb3610cae610ca984610892565b610c8e565b610892565b9050919050565b6000819050919050565b610ccd83610c98565b610ce1610cd982610cba565b848454610c3c565b825550505050565b600090565b610cf6610ce9565b610d01818484610cc4565b505050565b5b81811015610d2557610d1a600082610cee565b600181019050610d07565b5050565b601f821115610d6a57610d3b81610c0a565b610d4484610c1f565b81016020851015610d53578190505b610d67610d5f85610c1f565b830182610d06565b50505b505050565b600082821c905092915050565b6000610d8d60001984600802610d6f565b1980831691505092915050565b6000610da68383610d7c565b9150826002028217905092915050565b610dbf826106f2565b67ffffffffffffffff811115610dd857610dd76108d2565b5b610de28254610b2d565b610ded828285610d29565b600060209050601f831160018114610e205760008415610e0e578287015190505b610e188582610d9a565b865550610e80565b601f198416610e2e86610c0a565b60005b82811015610e5657848901518255600182019150602085019450602081019050610e31565b86831015610e735784890151610e6f601f891682610d7c565b8355505b6001600288020188555050505b505050505050565b7f4e487b7100000000000000000000000000000000000000000000000000000000600052601160045260246000fd5b6000610ec282610892565b9150610ecd83610892565b9250828203905081811115610ee557610ee4610e88565b5b92915050565b600081549050610efa81610b2d565b9050919050565b818103610f0f575050610fe7565b610f1882610eeb565b67ffffffffffffffff811115610f3157610f306108d2565b5b610f3b8254610b2d565b610f46828285610d29565b6000601f831160018114610f755760008415610f63578287015490505b610f6d8582610d9a565b865550610fe0565b601f198416610f8387610c0a565b9650610f8e86610c0a565b60005b82811015610fb657848901548255600182019150600185019450602081019050610f91565b86831015610fd35784890154610fcf601f891682610d7c565b8355505b6001600288020188555050505b5050505050505b565b7f4e487b7100000000000000000000000000000000000000000000000000000000600052603160045260246000fdfea26469706673582212206e24a58de6beb2791d2abdebefb48b6a5e09dc12e4732622bce97de14b2ddde364736f6c63430008100033",
  "immutableReferences": {},
  "source": "// SPDX-License-Identifier: MIT\r\npragma solidity ^0.8.16;\r\n\r\ncontract PasswordManager {\r\n    struct Password {\r\n        string site;\r\n        string encryptedPassword;\r\n    }\r\n\r\n    mapping(address => Password[]) private passwords;\r\n\r\n    function addPassword(\r\n        string memory _site,\r\n        string memory _encryptedPassword\r\n    ) public {\r\n        passwords[msg.sender].push(Password(_site, _encryptedPassword));\r\n    }\r\n\r\n    function getPasswords() public view returns (Password[] memory) {\r\n        return passwords[msg.sender];\r\n    }\r\n\r\n    function updatePassword(\r\n        uint256 _index,\r\n        string memory _newEncryptedPassword\r\n    ) public {\r\n        require(_index < passwords[msg.sender].length, \"Invalid index\");\r\n        passwords[msg.sender][_index].encryptedPassword = _newEncryptedPassword;\r\n    }\r\n\r\n    function deletePassword(uint256 _index) public {\r\n        require(_index < passwords[msg.sender].length, \"Invalid index\");\r\n        passwords[msg.sender][_index] = passwords[msg.sender][\r\n            passwords[msg.sender].length - 1\r\n        ];\r\n        passwords[msg.sender].pop();\r\n    }\r\n}\r\n",
  "sourcePath": "D:\\vs\\blockchain password manager\\contracts\\PasswordManager.sol",
  "compiler": {
    "name": "solc",
    "version": "0.8.16+commit.07a7930e.Emscripten.clang"
  },
  "schemaVersion": "3.4.16",
  "updatedAt": "2024-10-19T06:15:31.676Z",
  "networkType": "ethereum",
  "devdoc": {
    "kind": "dev",
    "methods": {},
    "version": 1
  },
  "userdoc": {
    "kind": "user",
    "methods": {},
    "version": 1
  }
}